{
  "_format": "hh-sol-artifact-1",
  "contractName": "Counter",
  "sourceName": "contracts/Counter.sol",
  "abi": [
    {
      "anonymous": false,
      "inputs": [
        {
          "indexed": true,
          "internalType": "address",
          "name": "by",
          "type": "address"
        },
        {
          "indexed": false,
          "internalType": "uint256",
          "name": "newValue",
          "type": "uint256"
        },
        {
          "indexed": false,
          "internalType": "uint256",
          "name": "timestamp",
          "type": "uint256"
        }
      ],
      "name": "Decrement",
      "type": "event"
    },
    {
      "anonymous": false,
      "inputs": [
        {
          "indexed": true,
          "internalType": "address",
          "name": "by",
          "type": "address"
        },
        {
          "indexed": false,
          "internalType": "uint256",
          "name": "newValue",
          "type": "uint256"
        },
        {
          "indexed": false,
          "internalType": "uint256",
          "name": "timestamp",
          "type": "uint256"
        }
      ],
      "name": "Increment",
      "type": "event"
    },
    {
      "anonymous": false,
      "inputs": [
        {
          "indexed": true,
          "internalType": "address",
          "name": "by",
          "type": "address"
        },
        {
          "indexed": false,
          "internalType": "uint256",
          "name": "timestamp",
          "type": "uint256"
        }
      ],
      "name": "Reset",
      "type": "event"
    },
    {
      "inputs": [],
      "name": "FEE",
      "outputs": [
        {
          "internalType": "uint256",
          "name": "",
          "type": "uint256"
        }
      ],
      "stateMutability": "view",
      "type": "function"
    },
    {
      "inputs": [],
      "name": "decrement",
      "outputs": [],
      "stateMutability": "nonpayable",
      "type": "function"
    },
    {
      "inputs": [],
      "name": "getCount",
      "outputs": [
        {
          "internalType": "uint256",
          "name": "",
          "type": "uint256"
        }
      ],
      "stateMutability": "view",
      "type": "function"
    },
    {
      "inputs": [],
      "name": "increment",
      "outputs": [],
      "stateMutability": "payable",
      "type": "function"
    },
    {
      "inputs": [],
      "name": "reset",
      "outputs": [],
      "stateMutability": "nonpayable",
      "type": "function"
    }
  ],
  "bytecode": "0x6080604052348015600f57600080fd5b506105f08061001f6000396000f3fe60806040526004361061004a5760003560e01c80632baeceb71461004f578063a87d942c14610066578063c57981b514610091578063d09de08a146100bc578063d826f88f146100c6575b600080fd5b34801561005b57600080fd5b506100646100dd565b005b34801561007257600080fd5b5061007b610228565b6040516100889190610364565b60405180910390f35b34801561009d57600080fd5b506100a6610231565b6040516100b39190610364565b60405180910390f35b6100c461023d565b005b3480156100d257600080fd5b506100db6102f4565b005b6000805411610121576040517f08c379a000000000000000000000000000000000000000000000000000000000815260040161011890610402565b60405180910390fd5b670de0b6b3a764000047101561016c576040517f08c379a00000000000000000000000000000000000000000000000000000000081526004016101639061046e565b60405180910390fd5b600160008082825461017e91906104bd565b925050819055503373ffffffffffffffffffffffffffffffffffffffff166108fc670de0b6b3a76400009081150290604051600060405180830381858888f193505050501580156101d3573d6000803e3d6000fd5b503373ffffffffffffffffffffffffffffffffffffffff167ffddee2bbe8aacb4a3284e9846e2b5b136b6986683d2fac351efa9bb871ee6a486000544260405161021e9291906104f1565b60405180910390a2565b60008054905090565b670de0b6b3a764000081565b670de0b6b3a76400003414610287576040517f08c379a000000000000000000000000000000000000000000000000000000000815260040161027e90610566565b60405180910390fd5b60016000808282546102999190610586565b925050819055503373ffffffffffffffffffffffffffffffffffffffff167f64f50d594c2a739c7088f9fc6785e1934030e17b52f1a894baec61b98633a59f600054426040516102ea9291906104f1565b60405180910390a2565b600080819055503373ffffffffffffffffffffffffffffffffffffffff167f154fa90f2d3692df165afacdcd7755b2e9d98a892a80cc1dda63f3a9cc1e64a4426040516103419190610364565b60405180910390a2565b6000819050919050565b61035e8161034b565b82525050565b60006020820190506103796000830184610355565b92915050565b600082825260208201905092915050565b7f436f756e7465723a2063616e6e6f742064656372656d656e742062656c6f772060008201527f7a65726f00000000000000000000000000000000000000000000000000000000602082015250565b60006103ec60248361037f565b91506103f782610390565b604082019050919050565b6000602082019050818103600083015261041b816103df565b9050919050565b7f496e73756666696369656e7420636f6e74726163742062616c616e6365000000600082015250565b6000610458601d8361037f565b915061046382610422565b602082019050919050565b600060208201905081810360008301526104878161044b565b9050919050565b7f4e487b7100000000000000000000000000000000000000000000000000000000600052601160045260246000fd5b60006104c88261034b565b91506104d38361034b565b92508282039050818111156104eb576104ea61048e565b5b92915050565b60006040820190506105066000830185610355565b6105136020830184610355565b9392505050565b7f4d7573742073656e642065786163746c7920302e303120455448000000000000600082015250565b6000610550601a8361037f565b915061055b8261051a565b602082019050919050565b6000602082019050818103600083015261057f81610543565b9050919050565b60006105918261034b565b915061059c8361034b565b92508282019050808211156105b4576105b361048e565b5b9291505056fea2646970667358221220b888ef0f93b45c5bf5462d64d84c30acfab12b22b55581ae95ffce421a7b3c4e64736f6c634300081c0033",
  "linkReferences": {},
  "deployedLinkReferences": {}
}