{
  "_format": "hh-sol-artifact-1",
  "contractName": "Counter",
  "sourceName": "contracts/Counter.sol",
  "abi": [
    {
      "anonymous": false,
      "inputs": [
        {
          "indexed": true,
          "internalType": "address",
          "name": "by",
          "type": "address"
        },
        {
          "indexed": false,
          "internalType": "uint256",
          "name": "newValue",
          "type": "uint256"
        },
        {
          "indexed": false,
          "internalType": "uint256",
          "name": "timestamp",
          "type": "uint256"
        }
      ],
      "name": "Decrement",
      "type": "event"
    },
    {
      "anonymous": false,
      "inputs": [
        {
          "indexed": true,
          "internalType": "address",
          "name": "by",
          "type": "address"
        },
        {
          "indexed": false,
          "internalType": "uint256",
          "name": "newValue",
          "type": "uint256"
        },
        {
          "indexed": false,
          "internalType": "uint256",
          "name": "timestamp",
          "type": "uint256"
        }
      ],
      "name": "Increment",
      "type": "event"
    },
    {
      "anonymous": false,
      "inputs": [
        {
          "indexed": true,
          "internalType": "address",
          "name": "by",
          "type": "address"
        },
        {
          "indexed": false,
          "internalType": "uint256",
          "name": "timestamp",
          "type": "uint256"
        }
      ],
      "name": "Reset",
      "type": "event"
    },
    {
      "inputs": [],
      "name": "decrement",
      "outputs": [],
      "stateMutability": "nonpayable",
      "type": "function"
    },
    {
      "inputs": [],
      "name": "getCount",
      "outputs": [
        {
          "internalType": "uint256",
          "name": "",
          "type": "uint256"
        }
      ],
      "stateMutability": "view",
      "type": "function"
    },
    {
      "inputs": [],
      "name": "increment",
      "outputs": [],
      "stateMutability": "nonpayable",
      "type": "function"
    },
    {
      "inputs": [],
      "name": "reset",
      "outputs": [],
      "stateMutability": "nonpayable",
      "type": "function"
    }
  ],
  "bytecode": "0x6080604052348015600f57600080fd5b506103d88061001f6000396000f3fe608060405234801561001057600080fd5b506004361061004c5760003560e01c80632baeceb714610051578063a87d942c1461005b578063d09de08a14610079578063d826f88f14610083575b600080fd5b61005961008d565b005b61006361013e565b6040516100709190610224565b60405180910390f35b610081610147565b005b61008b6101b4565b005b60008054116100d1576040517f08c379a00000000000000000000000000000000000000000000000000000000081526004016100c8906102c2565b60405180910390fd5b60016000808282546100e39190610311565b925050819055503373ffffffffffffffffffffffffffffffffffffffff167ffddee2bbe8aacb4a3284e9846e2b5b136b6986683d2fac351efa9bb871ee6a4860005442604051610134929190610345565b60405180910390a2565b60008054905090565b6001600080828254610159919061036e565b925050819055503373ffffffffffffffffffffffffffffffffffffffff167f64f50d594c2a739c7088f9fc6785e1934030e17b52f1a894baec61b98633a59f600054426040516101aa929190610345565b60405180910390a2565b600080819055503373ffffffffffffffffffffffffffffffffffffffff167f154fa90f2d3692df165afacdcd7755b2e9d98a892a80cc1dda63f3a9cc1e64a4426040516102019190610224565b60405180910390a2565b6000819050919050565b61021e8161020b565b82525050565b60006020820190506102396000830184610215565b92915050565b600082825260208201905092915050565b7f436f756e7465723a2063616e6e6f742064656372656d656e742062656c6f772060008201527f7a65726f00000000000000000000000000000000000000000000000000000000602082015250565b60006102ac60248361023f565b91506102b782610250565b604082019050919050565b600060208201905081810360008301526102db8161029f565b9050919050565b7f4e487b7100000000000000000000000000000000000000000000000000000000600052601160045260246000fd5b600061031c8261020b565b91506103278361020b565b925082820390508181111561033f5761033e6102e2565b5b92915050565b600060408201905061035a6000830185610215565b6103676020830184610215565b9392505050565b60006103798261020b565b91506103848361020b565b925082820190508082111561039c5761039b6102e2565b5b9291505056fea2646970667358221220afd3204c21d67f42f5d2fde018c8d61a9d265a2b4b20f5a5aac7999fec21ae4d64736f6c634300081c0033",
  "linkReferences": {},
  "deployedLinkReferences": {}
}